{
  "_format": "hh-sol-artifact-1",
  "contractName": "alphaROSENFT",
  "sourceName": "contracts/alphaROSENFT.sol",
  "abi": [
    {
      "inputs": [],
      "stateMutability": "nonpayable",
      "type": "constructor"
    },
    {
      "anonymous": false,
      "inputs": [
        {
          "indexed": true,
          "internalType": "address",
          "name": "account",
          "type": "address"
        },
        {
          "indexed": true,
          "internalType": "address",
          "name": "operator",
          "type": "address"
        },
        {
          "indexed": false,
          "internalType": "bool",
          "name": "approved",
          "type": "bool"
        }
      ],
      "name": "ApprovalForAll",
      "type": "event"
    },
    {
      "anonymous": false,
      "inputs": [
        {
          "indexed": true,
          "internalType": "address",
          "name": "operator",
          "type": "address"
        },
        {
          "indexed": true,
          "internalType": "address",
          "name": "from",
          "type": "address"
        },
        {
          "indexed": true,
          "internalType": "address",
          "name": "to",
          "type": "address"
        },
        {
          "indexed": false,
          "internalType": "uint256[]",
          "name": "ids",
          "type": "uint256[]"
        },
        {
          "indexed": false,
          "internalType": "uint256[]",
          "name": "values",
          "type": "uint256[]"
        }
      ],
      "name": "TransferBatch",
      "type": "event"
    },
    {
      "anonymous": false,
      "inputs": [
        {
          "indexed": true,
          "internalType": "address",
          "name": "operator",
          "type": "address"
        },
        {
          "indexed": true,
          "internalType": "address",
          "name": "from",
          "type": "address"
        },
        {
          "indexed": true,
          "internalType": "address",
          "name": "to",
          "type": "address"
        },
        {
          "indexed": false,
          "internalType": "uint256",
          "name": "id",
          "type": "uint256"
        },
        {
          "indexed": false,
          "internalType": "uint256",
          "name": "value",
          "type": "uint256"
        }
      ],
      "name": "TransferSingle",
      "type": "event"
    },
    {
      "anonymous": false,
      "inputs": [
        {
          "indexed": false,
          "internalType": "string",
          "name": "value",
          "type": "string"
        },
        {
          "indexed": true,
          "internalType": "uint256",
          "name": "id",
          "type": "uint256"
        }
      ],
      "name": "URI",
      "type": "event"
    },
    {
      "inputs": [
        {
          "internalType": "address",
          "name": "account",
          "type": "address"
        },
        {
          "internalType": "uint256",
          "name": "id",
          "type": "uint256"
        }
      ],
      "name": "balanceOf",
      "outputs": [
        {
          "internalType": "uint256",
          "name": "",
          "type": "uint256"
        }
      ],
      "stateMutability": "view",
      "type": "function"
    },
    {
      "inputs": [
        {
          "internalType": "address[]",
          "name": "accounts",
          "type": "address[]"
        },
        {
          "internalType": "uint256[]",
          "name": "ids",
          "type": "uint256[]"
        }
      ],
      "name": "balanceOfBatch",
      "outputs": [
        {
          "internalType": "uint256[]",
          "name": "",
          "type": "uint256[]"
        }
      ],
      "stateMutability": "view",
      "type": "function"
    },
    {
      "inputs": [
        {
          "internalType": "address",
          "name": "account",
          "type": "address"
        },
        {
          "internalType": "address",
          "name": "operator",
          "type": "address"
        }
      ],
      "name": "isApprovedForAll",
      "outputs": [
        {
          "internalType": "bool",
          "name": "",
          "type": "bool"
        }
      ],
      "stateMutability": "view",
      "type": "function"
    },
    {
      "inputs": [
        {
          "internalType": "uint256",
          "name": "_token_id",
          "type": "uint256"
        }
      ],
      "name": "mint",
      "outputs": [
        {
          "internalType": "uint256",
          "name": "",
          "type": "uint256"
        }
      ],
      "stateMutability": "nonpayable",
      "type": "function"
    },
    {
      "inputs": [],
      "name": "name",
      "outputs": [
        {
          "internalType": "string",
          "name": "",
          "type": "string"
        }
      ],
      "stateMutability": "view",
      "type": "function"
    },
    {
      "inputs": [
        {
          "internalType": "address",
          "name": "from",
          "type": "address"
        },
        {
          "internalType": "address",
          "name": "to",
          "type": "address"
        },
        {
          "internalType": "uint256[]",
          "name": "ids",
          "type": "uint256[]"
        },
        {
          "internalType": "uint256[]",
          "name": "amounts",
          "type": "uint256[]"
        },
        {
          "internalType": "bytes",
          "name": "data",
          "type": "bytes"
        }
      ],
      "name": "safeBatchTransferFrom",
      "outputs": [],
      "stateMutability": "nonpayable",
      "type": "function"
    },
    {
      "inputs": [
        {
          "internalType": "address",
          "name": "from",
          "type": "address"
        },
        {
          "internalType": "address",
          "name": "to",
          "type": "address"
        },
        {
          "internalType": "uint256",
          "name": "id",
          "type": "uint256"
        },
        {
          "internalType": "uint256",
          "name": "amount",
          "type": "uint256"
        },
        {
          "internalType": "bytes",
          "name": "data",
          "type": "bytes"
        }
      ],
      "name": "safeTransferFrom",
      "outputs": [],
      "stateMutability": "nonpayable",
      "type": "function"
    },
    {
      "inputs": [
        {
          "internalType": "address",
          "name": "operator",
          "type": "address"
        },
        {
          "internalType": "bool",
          "name": "approved",
          "type": "bool"
        }
      ],
      "name": "setApprovalForAll",
      "outputs": [],
      "stateMutability": "nonpayable",
      "type": "function"
    },
    {
      "inputs": [
        {
          "internalType": "uint256",
          "name": "_token_id",
          "type": "uint256"
        },
        {
          "internalType": "uint256",
          "name": "_numbers",
          "type": "uint256"
        }
      ],
      "name": "setTokendIdInfo",
      "outputs": [],
      "stateMutability": "nonpayable",
      "type": "function"
    },
    {
      "inputs": [
        {
          "internalType": "bytes4",
          "name": "interfaceId",
          "type": "bytes4"
        }
      ],
      "name": "supportsInterface",
      "outputs": [
        {
          "internalType": "bool",
          "name": "",
          "type": "bool"
        }
      ],
      "stateMutability": "view",
      "type": "function"
    },
    {
      "inputs": [],
      "name": "symbol",
      "outputs": [
        {
          "internalType": "string",
          "name": "",
          "type": "string"
        }
      ],
      "stateMutability": "view",
      "type": "function"
    },
    {
      "inputs": [
        {
          "internalType": "uint256",
          "name": "",
          "type": "uint256"
        }
      ],
      "name": "token_ids_mint_num",
      "outputs": [
        {
          "internalType": "uint256",
          "name": "",
          "type": "uint256"
        }
      ],
      "stateMutability": "view",
      "type": "function"
    },
    {
      "inputs": [
        {
          "internalType": "uint256",
          "name": "",
          "type": "uint256"
        }
      ],
      "name": "token_ids_num",
      "outputs": [
        {
          "internalType": "uint256",
          "name": "",
          "type": "uint256"
        }
      ],
      "stateMutability": "view",
      "type": "function"
    },
    {
      "inputs": [
        {
          "internalType": "uint256",
          "name": "",
          "type": "uint256"
        }
      ],
      "name": "uri",
      "outputs": [
        {
          "internalType": "string",
          "name": "",
          "type": "string"
        }
      ],
      "stateMutability": "view",
      "type": "function"
    }
  ],
  "bytecode": "0x60806040526040518060400160405280600e81526020017f616c70686120524f5345204e4654000000000000000000000000000000000000815250600390816200004a9190620003bd565b506040518060a0016040528060678152602001620034246067913960049081620000759190620003bd565b503480156200008357600080fd5b506040518060a00160405280606281526020016200348b60629139620000af816200012e60201b60201c565b50610fa06005600061054d81526020019081526020016000208190555060016006600061054d81526020019081526020016000208190555033600760006101000a81548173ffffffffffffffffffffffffffffffffffffffff021916908373ffffffffffffffffffffffffffffffffffffffff160217905550620004a4565b80600290816200013f9190620003bd565b5050565b600081519050919050565b7f4e487b7100000000000000000000000000000000000000000000000000000000600052604160045260246000fd5b7f4e487b7100000000000000000000000000000000000000000000000000000000600052602260045260246000fd5b60006002820490506001821680620001c557607f821691505b602082108103620001db57620001da6200017d565b5b50919050565b60008190508160005260206000209050919050565b60006020601f8301049050919050565b600082821b905092915050565b600060088302620002457fffffffffffffffffffffffffffffffffffffffffffffffffffffffffffffffff8262000206565b62000251868362000206565b95508019841693508086168417925050509392505050565b6000819050919050565b6000819050919050565b60006200029e62000298620002928462000269565b62000273565b62000269565b9050919050565b6000819050919050565b620002ba836200027d565b620002d2620002c982620002a5565b84845462000213565b825550505050565b600090565b620002e9620002da565b620002f6818484620002af565b505050565b5b818110156200031e5762000312600082620002df565b600181019050620002fc565b5050565b601f8211156200036d576200033781620001e1565b6200034284620001f6565b8101602085101562000352578190505b6200036a6200036185620001f6565b830182620002fb565b50505b505050565b600082821c905092915050565b6000620003926000198460080262000372565b1980831691505092915050565b6000620003ad83836200037f565b9150826002028217905092915050565b620003c88262000143565b67ffffffffffffffff811115620003e457620003e36200014e565b5b620003f08254620001ac565b620003fd82828562000322565b600060209050601f83116001811462000435576000841562000420578287015190505b6200042c85826200039f565b8655506200049c565b601f1984166200044586620001e1565b60005b828110156200046f5784890151825560018201915060208501945060208101905062000448565b868310156200048f57848901516200048b601f8916826200037f565b8355505b6001600288020188555050505b505050505050565b612f7080620004b46000396000f3fe608060405234801561001057600080fd5b50600436106100e95760003560e01c806395d89b411161008c578063a5f67c5011610066578063a5f67c5014610282578063d1361dfb146102b2578063e985e9c5146102ce578063f242432a146102fe576100e9565b806395d89b4114610218578063a0712d6814610236578063a22cb46514610266576100e9565b80630702ba1d116100c85780630702ba1d1461016c5780630e89341c1461019c5780632eb2c2d6146101cc5780634e1273f4146101e8576100e9565b8062fdd58e146100ee57806301ffc9a71461011e57806306fdde031461014e575b600080fd5b61010860048036038101906101039190611b81565b61031a565b6040516101159190611bd0565b60405180910390f35b61013860048036038101906101339190611c43565b6103e2565b6040516101459190611c8b565b60405180910390f35b6101566104c4565b6040516101639190611d36565b60405180910390f35b61018660048036038101906101819190611d58565b610552565b6040516101939190611bd0565b60405180910390f35b6101b660048036038101906101b19190611d58565b61056a565b6040516101c39190611d36565b60405180910390f35b6101e660048036038101906101e19190611f82565b6105fe565b005b61020260048036038101906101fd9190612114565b61072f565b60405161020f919061224a565b60405180910390f35b610220610848565b60405161022d9190611d36565b60405180910390f35b610250600480360381019061024b9190611d58565b6108d6565b60405161025d9190611bd0565b60405180910390f35b610280600480360381019061027b9190612298565b610a60565b005b61029c60048036038101906102979190611d58565b610a76565b6040516102a99190611bd0565b60405180910390f35b6102cc60048036038101906102c791906122d8565b610a8e565b005b6102e860048036038101906102e39190612318565b610b6f565b6040516102f59190611c8b565b60405180910390f35b61031860048036038101906103139190612358565b610c03565b005b60008073ffffffffffffffffffffffffffffffffffffffff168373ffffffffffffffffffffffffffffffffffffffff160361038a576040517f08c379a000000000000000000000000000000000000000000000000000000000815260040161038190612461565b60405180910390fd5b60008083815260200190815260200160002060008473ffffffffffffffffffffffffffffffffffffffff1673ffffffffffffffffffffffffffffffffffffffff16815260200190815260200160002054905092915050565b60007fd9b67a26000000000000000000000000000000000000000000000000000000007bffffffffffffffffffffffffffffffffffffffffffffffffffffffff1916827bffffffffffffffffffffffffffffffffffffffffffffffffffffffff191614806104ad57507f0e89341c000000000000000000000000000000000000000000000000000000007bffffffffffffffffffffffffffffffffffffffffffffffffffffffff1916827bffffffffffffffffffffffffffffffffffffffffffffffffffffffff1916145b806104bd57506104bc82610d34565b5b9050919050565b600380546104d1906124b0565b80601f01602080910402602001604051908101604052809291908181526020018280546104fd906124b0565b801561054a5780601f1061051f5761010080835404028352916020019161054a565b820191906000526020600020905b81548152906001019060200180831161052d57829003601f168201915b505050505081565b60056020528060005260406000206000915090505481565b606060028054610579906124b0565b80601f01602080910402602001604051908101604052809291908181526020018280546105a5906124b0565b80156105f25780601f106105c7576101008083540402835291602001916105f2565b820191906000526020600020905b8154815290600101906020018083116105d557829003601f168201915b50505050509050919050565b610606610d9e565b73ffffffffffffffffffffffffffffffffffffffff168573ffffffffffffffffffffffffffffffffffffffff16148061064c575061064b85610646610d9e565b610b6f565b5b61068b576040517f08c379a000000000000000000000000000000000000000000000000000000000815260040161068290612553565b60405180910390fd5b600760009054906101000a900473ffffffffffffffffffffffffffffffffffffffff1673ffffffffffffffffffffffffffffffffffffffff168573ffffffffffffffffffffffffffffffffffffffff161461071b576040517f08c379a0000000000000000000000000000000000000000000000000000000008152600401610712906125bf565b60405180910390fd5b6107288585858585610da6565b5050505050565b60608151835114610775576040517f08c379a000000000000000000000000000000000000000000000000000000000815260040161076c90612651565b60405180910390fd5b6000835167ffffffffffffffff81111561079257610791611d8a565b5b6040519080825280602002602001820160405280156107c05781602001602082028036833780820191505090505b50905060005b845181101561083d5761080d8582815181106107e5576107e4612671565b5b6020026020010151858381518110610800576107ff612671565b5b602002602001015161031a565b8282815181106108205761081f612671565b5b60200260200101818152505080610836906126cf565b90506107c6565b508091505092915050565b60048054610855906124b0565b80601f0160208091040260200160405190810160405280929190818152602001828054610881906124b0565b80156108ce5780601f106108a3576101008083540402835291602001916108ce565b820191906000526020600020905b8154815290600101906020018083116108b157829003601f168201915b505050505081565b60008060056000848152602001908152602001600020541161092d576040517f08c379a000000000000000000000000000000000000000000000000000000000815260040161092490612789565b60405180910390fd5b600660008381526020019081526020016000205460056000848152602001908152602001600020541015610996576040517f08c379a000000000000000000000000000000000000000000000000000000000815260040161098d90612789565b60405180910390fd5b60006109a2338461031a565b9050600081146109e7576040517f08c379a00000000000000000000000000000000000000000000000000000000081526004016109de906127f5565b60405180910390fd5b600060066000858152602001908152602001600020549050610a2d33856006600088815260200190815260200160002054604051806020016040528060008152506110c7565b600660008581526020019081526020016000206000815480929190610a51906126cf565b91905055508092505050919050565b610a72610a6b610d9e565b8383611277565b5050565b60066020528060005260406000206000915090505481565b600760009054906101000a900473ffffffffffffffffffffffffffffffffffffffff1673ffffffffffffffffffffffffffffffffffffffff163373ffffffffffffffffffffffffffffffffffffffff1614610b1e576040517f08c379a0000000000000000000000000000000000000000000000000000000008152600401610b1590612861565b60405180910390fd5b6000600560008481526020019081526020016000205403610b5357600160066000848152602001908152602001600020819055505b8060056000848152602001908152602001600020819055505050565b6000600160008473ffffffffffffffffffffffffffffffffffffffff1673ffffffffffffffffffffffffffffffffffffffff16815260200190815260200160002060008373ffffffffffffffffffffffffffffffffffffffff1673ffffffffffffffffffffffffffffffffffffffff16815260200190815260200160002060009054906101000a900460ff16905092915050565b610c0b610d9e565b73ffffffffffffffffffffffffffffffffffffffff168573ffffffffffffffffffffffffffffffffffffffff161480610c515750610c5085610c4b610d9e565b610b6f565b5b610c90576040517f08c379a0000000000000000000000000000000000000000000000000000000008152600401610c8790612553565b60405180910390fd5b600760009054906101000a900473ffffffffffffffffffffffffffffffffffffffff1673ffffffffffffffffffffffffffffffffffffffff168573ffffffffffffffffffffffffffffffffffffffff1614610d20576040517f08c379a0000000000000000000000000000000000000000000000000000000008152600401610d17906125bf565b60405180910390fd5b610d2d85858585856113e3565b5050505050565b60007f01ffc9a7000000000000000000000000000000000000000000000000000000007bffffffffffffffffffffffffffffffffffffffffffffffffffffffff1916827bffffffffffffffffffffffffffffffffffffffffffffffffffffffff1916149050919050565b600033905090565b8151835114610dea576040517f08c379a0000000000000000000000000000000000000000000000000000000008152600401610de1906128f3565b60405180910390fd5b600073ffffffffffffffffffffffffffffffffffffffff168473ffffffffffffffffffffffffffffffffffffffff1603610e59576040517f08c379a0000000000000000000000000000000000000000000000000000000008152600401610e5090612985565b60405180910390fd5b6000610e63610d9e565b9050610e7381878787878761167e565b60005b8451811015611024576000858281518110610e9457610e93612671565b5b602002602001015190506000858381518110610eb357610eb2612671565b5b60200260200101519050600080600084815260200190815260200160002060008b73ffffffffffffffffffffffffffffffffffffffff1673ffffffffffffffffffffffffffffffffffffffff16815260200190815260200160002054905081811015610f54576040517f08c379a0000000000000000000000000000000000000000000000000000000008152600401610f4b90612a17565b60405180910390fd5b81810360008085815260200190815260200160002060008c73ffffffffffffffffffffffffffffffffffffffff1673ffffffffffffffffffffffffffffffffffffffff168152602001908152602001600020819055508160008085815260200190815260200160002060008b73ffffffffffffffffffffffffffffffffffffffff1673ffffffffffffffffffffffffffffffffffffffff16815260200190815260200160002060008282546110099190612a37565b925050819055505050508061101d906126cf565b9050610e76565b508473ffffffffffffffffffffffffffffffffffffffff168673ffffffffffffffffffffffffffffffffffffffff168273ffffffffffffffffffffffffffffffffffffffff167f4a39dc06d4c0dbc64b70af90fd698a233a518aa5d07e595d983b8c0526c8f7fb878760405161109b929190612a6b565b60405180910390a46110b1818787878787611686565b6110bf81878787878761168e565b505050505050565b600073ffffffffffffffffffffffffffffffffffffffff168473ffffffffffffffffffffffffffffffffffffffff1603611136576040517f08c379a000000000000000000000000000000000000000000000000000000000815260040161112d90612b14565b60405180910390fd5b6000611140610d9e565b9050600061114d85611865565b9050600061115a85611865565b905061116b8360008985858961167e565b8460008088815260200190815260200160002060008973ffffffffffffffffffffffffffffffffffffffff1673ffffffffffffffffffffffffffffffffffffffff16815260200190815260200160002060008282546111ca9190612a37565b925050819055508673ffffffffffffffffffffffffffffffffffffffff16600073ffffffffffffffffffffffffffffffffffffffff168473ffffffffffffffffffffffffffffffffffffffff167fc3d58168c5ae7397731d063d5bbf3d657854427343f4c083240f7aacaa2d0f628989604051611248929190612b34565b60405180910390a461125f83600089858589611686565b61126e836000898989896118df565b50505050505050565b8173ffffffffffffffffffffffffffffffffffffffff168373ffffffffffffffffffffffffffffffffffffffff16036112e5576040517f08c379a00000000000000000000000000000000000000000000000000000000081526004016112dc90612bcf565b60405180910390fd5b80600160008573ffffffffffffffffffffffffffffffffffffffff1673ffffffffffffffffffffffffffffffffffffffff16815260200190815260200160002060008473ffffffffffffffffffffffffffffffffffffffff1673ffffffffffffffffffffffffffffffffffffffff16815260200190815260200160002060006101000a81548160ff0219169083151502179055508173ffffffffffffffffffffffffffffffffffffffff168373ffffffffffffffffffffffffffffffffffffffff167f17307eab39ab6107e8899845ad3d59bd9653f200f220920489ca2b5937696c31836040516113d69190611c8b565b60405180910390a3505050565b600073ffffffffffffffffffffffffffffffffffffffff168473ffffffffffffffffffffffffffffffffffffffff1603611452576040517f08c379a000000000000000000000000000000000000000000000000000000000815260040161144990612985565b60405180910390fd5b600061145c610d9e565b9050600061146985611865565b9050600061147685611865565b905061148683898985858961167e565b600080600088815260200190815260200160002060008a73ffffffffffffffffffffffffffffffffffffffff1673ffffffffffffffffffffffffffffffffffffffff1681526020019081526020016000205490508581101561151d576040517f08c379a000000000000000000000000000000000000000000000000000000000815260040161151490612a17565b60405180910390fd5b85810360008089815260200190815260200160002060008b73ffffffffffffffffffffffffffffffffffffffff1673ffffffffffffffffffffffffffffffffffffffff168152602001908152602001600020819055508560008089815260200190815260200160002060008a73ffffffffffffffffffffffffffffffffffffffff1673ffffffffffffffffffffffffffffffffffffffff16815260200190815260200160002060008282546115d29190612a37565b925050819055508773ffffffffffffffffffffffffffffffffffffffff168973ffffffffffffffffffffffffffffffffffffffff168573ffffffffffffffffffffffffffffffffffffffff167fc3d58168c5ae7397731d063d5bbf3d657854427343f4c083240f7aacaa2d0f628a8a60405161164f929190612b34565b60405180910390a4611665848a8a86868a611686565b611673848a8a8a8a8a6118df565b505050505050505050565b505050505050565b505050505050565b6116ad8473ffffffffffffffffffffffffffffffffffffffff16611ab6565b1561185d578373ffffffffffffffffffffffffffffffffffffffff1663bc197c8187878686866040518663ffffffff1660e01b81526004016116f3959493929190612c53565b6020604051808303816000875af192505050801561172f57506040513d601f19601f8201168201806040525081019061172c9190612cd0565b60015b6117d45761173b612d0a565b806308c379a003611797575061174f612d2c565b8061175a5750611799565b806040517f08c379a000000000000000000000000000000000000000000000000000000000815260040161178e9190611d36565b60405180910390fd5b505b6040517f08c379a00000000000000000000000000000000000000000000000000000000081526004016117cb90612e2e565b60405180910390fd5b63bc197c8160e01b7bffffffffffffffffffffffffffffffffffffffffffffffffffffffff1916817bffffffffffffffffffffffffffffffffffffffffffffffffffffffff19161461185b576040517f08c379a000000000000000000000000000000000000000000000000000000000815260040161185290612ec0565b60405180910390fd5b505b505050505050565b60606000600167ffffffffffffffff81111561188457611883611d8a565b5b6040519080825280602002602001820160405280156118b25781602001602082028036833780820191505090505b50905082816000815181106118ca576118c9612671565b5b60200260200101818152505080915050919050565b6118fe8473ffffffffffffffffffffffffffffffffffffffff16611ab6565b15611aae578373ffffffffffffffffffffffffffffffffffffffff1663f23a6e6187878686866040518663ffffffff1660e01b8152600401611944959493929190612ee0565b6020604051808303816000875af192505050801561198057506040513d601f19601f8201168201806040525081019061197d9190612cd0565b60015b611a255761198c612d0a565b806308c379a0036119e857506119a0612d2c565b806119ab57506119ea565b806040517f08c379a00000000000000000000000000000000000000000000000000000000081526004016119df9190611d36565b60405180910390fd5b505b6040517f08c379a0000000000000000000000000000000000000000000000000000000008152600401611a1c90612e2e565b60405180910390fd5b63f23a6e6160e01b7bffffffffffffffffffffffffffffffffffffffffffffffffffffffff1916817bffffffffffffffffffffffffffffffffffffffffffffffffffffffff191614611aac576040517f08c379a0000000000000000000000000000000000000000000000000000000008152600401611aa390612ec0565b60405180910390fd5b505b505050505050565b6000808273ffffffffffffffffffffffffffffffffffffffff163b119050919050565b6000604051905090565b600080fd5b600080fd5b600073ffffffffffffffffffffffffffffffffffffffff82169050919050565b6000611b1882611aed565b9050919050565b611b2881611b0d565b8114611b3357600080fd5b50565b600081359050611b4581611b1f565b92915050565b6000819050919050565b611b5e81611b4b565b8114611b6957600080fd5b50565b600081359050611b7b81611b55565b92915050565b60008060408385031215611b9857611b97611ae3565b5b6000611ba685828601611b36565b9250506020611bb785828601611b6c565b9150509250929050565b611bca81611b4b565b82525050565b6000602082019050611be56000830184611bc1565b92915050565b60007fffffffff0000000000000000000000000000000000000000000000000000000082169050919050565b611c2081611beb565b8114611c2b57600080fd5b50565b600081359050611c3d81611c17565b92915050565b600060208284031215611c5957611c58611ae3565b5b6000611c6784828501611c2e565b91505092915050565b60008115159050919050565b611c8581611c70565b82525050565b6000602082019050611ca06000830184611c7c565b92915050565b600081519050919050565b600082825260208201905092915050565b60005b83811015611ce0578082015181840152602081019050611cc5565b60008484015250505050565b6000601f19601f8301169050919050565b6000611d0882611ca6565b611d128185611cb1565b9350611d22818560208601611cc2565b611d2b81611cec565b840191505092915050565b60006020820190508181036000830152611d508184611cfd565b905092915050565b600060208284031215611d6e57611d6d611ae3565b5b6000611d7c84828501611b6c565b91505092915050565b600080fd5b7f4e487b7100000000000000000000000000000000000000000000000000000000600052604160045260246000fd5b611dc282611cec565b810181811067ffffffffffffffff82111715611de157611de0611d8a565b5b80604052505050565b6000611df4611ad9565b9050611e008282611db9565b919050565b600067ffffffffffffffff821115611e2057611e1f611d8a565b5b602082029050602081019050919050565b600080fd5b6000611e49611e4484611e05565b611dea565b90508083825260208201905060208402830185811115611e6c57611e6b611e31565b5b835b81811015611e955780611e818882611b6c565b845260208401935050602081019050611e6e565b5050509392505050565b600082601f830112611eb457611eb3611d85565b5b8135611ec4848260208601611e36565b91505092915050565b600080fd5b600067ffffffffffffffff821115611eed57611eec611d8a565b5b611ef682611cec565b9050602081019050919050565b82818337600083830152505050565b6000611f25611f2084611ed2565b611dea565b905082815260208101848484011115611f4157611f40611ecd565b5b611f4c848285611f03565b509392505050565b600082601f830112611f6957611f68611d85565b5b8135611f79848260208601611f12565b91505092915050565b600080600080600060a08688031215611f9e57611f9d611ae3565b5b6000611fac88828901611b36565b9550506020611fbd88828901611b36565b945050604086013567ffffffffffffffff811115611fde57611fdd611ae8565b5b611fea88828901611e9f565b935050606086013567ffffffffffffffff81111561200b5761200a611ae8565b5b61201788828901611e9f565b925050608086013567ffffffffffffffff81111561203857612037611ae8565b5b61204488828901611f54565b9150509295509295909350565b600067ffffffffffffffff82111561206c5761206b611d8a565b5b602082029050602081019050919050565b600061209061208b84612051565b611dea565b905080838252602082019050602084028301858111156120b3576120b2611e31565b5b835b818110156120dc57806120c88882611b36565b8452602084019350506020810190506120b5565b5050509392505050565b600082601f8301126120fb576120fa611d85565b5b813561210b84826020860161207d565b91505092915050565b6000806040838503121561212b5761212a611ae3565b5b600083013567ffffffffffffffff81111561214957612148611ae8565b5b612155858286016120e6565b925050602083013567ffffffffffffffff81111561217657612175611ae8565b5b61218285828601611e9f565b9150509250929050565b600081519050919050565b600082825260208201905092915050565b6000819050602082019050919050565b6121c181611b4b565b82525050565b60006121d383836121b8565b60208301905092915050565b6000602082019050919050565b60006121f78261218c565b6122018185612197565b935061220c836121a8565b8060005b8381101561223d57815161222488826121c7565b975061222f836121df565b925050600181019050612210565b5085935050505092915050565b6000602082019050818103600083015261226481846121ec565b905092915050565b61227581611c70565b811461228057600080fd5b50565b6000813590506122928161226c565b92915050565b600080604083850312156122af576122ae611ae3565b5b60006122bd85828601611b36565b92505060206122ce85828601612283565b9150509250929050565b600080604083850312156122ef576122ee611ae3565b5b60006122fd85828601611b6c565b925050602061230e85828601611b6c565b9150509250929050565b6000806040838503121561232f5761232e611ae3565b5b600061233d85828601611b36565b925050602061234e85828601611b36565b9150509250929050565b600080600080600060a0868803121561237457612373611ae3565b5b600061238288828901611b36565b955050602061239388828901611b36565b94505060406123a488828901611b6c565b93505060606123b588828901611b6c565b925050608086013567ffffffffffffffff8111156123d6576123d5611ae8565b5b6123e288828901611f54565b9150509295509295909350565b7f455243313135353a2061646472657373207a65726f206973206e6f742061207660008201527f616c6964206f776e657200000000000000000000000000000000000000000000602082015250565b600061244b602a83611cb1565b9150612456826123ef565b604082019050919050565b6000602082019050818103600083015261247a8161243e565b9050919050565b7f4e487b7100000000000000000000000000000000000000000000000000000000600052602260045260246000fd5b600060028204905060018216806124c857607f821691505b6020821081036124db576124da612481565b5b50919050565b7f455243313135353a2063616c6c6572206973206e6f7420746f6b656e206f776e60008201527f6572206f7220617070726f766564000000000000000000000000000000000000602082015250565b600061253d602e83611cb1565b9150612548826124e1565b604082019050919050565b6000602082019050818103600083015261256c81612530565b9050919050565b7f455243313135353a20596f752063616e27742074726164650000000000000000600082015250565b60006125a9601883611cb1565b91506125b482612573565b602082019050919050565b600060208201905081810360008301526125d88161259c565b9050919050565b7f455243313135353a206163636f756e747320616e6420696473206c656e67746860008201527f206d69736d617463680000000000000000000000000000000000000000000000602082015250565b600061263b602983611cb1565b9150612646826125df565b604082019050919050565b6000602082019050818103600083015261266a8161262e565b9050919050565b7f4e487b7100000000000000000000000000000000000000000000000000000000600052603260045260246000fd5b7f4e487b7100000000000000000000000000000000000000000000000000000000600052601160045260246000fd5b60006126da82611b4b565b91507fffffffffffffffffffffffffffffffffffffffffffffffffffffffffffffffff820361270c5761270b6126a0565b5b600182019050919050565b7f6e667420746f6b656e20696420206973206e6f7420696e73756666696369656e60008201527f7400000000000000000000000000000000000000000000000000000000000000602082015250565b6000612773602183611cb1565b915061277e82612717565b604082019050919050565b600060208201905081810360008301526127a281612766565b9050919050565b7f596f7520616c7265616479206d696e742074686973206e667400000000000000600082015250565b60006127df601983611cb1565b91506127ea826127a9565b602082019050919050565b6000602082019050818103600083015261280e816127d2565b9050919050565b7f54656d706f726172696c7920776974686f757420617574686f72697479000000600082015250565b600061284b601d83611cb1565b915061285682612815565b602082019050919050565b6000602082019050818103600083015261287a8161283e565b9050919050565b7f455243313135353a2069647320616e6420616d6f756e7473206c656e6774682060008201527f6d69736d61746368000000000000000000000000000000000000000000000000602082015250565b60006128dd602883611cb1565b91506128e882612881565b604082019050919050565b6000602082019050818103600083015261290c816128d0565b9050919050565b7f455243313135353a207472616e7366657220746f20746865207a65726f20616460008201527f6472657373000000000000000000000000000000000000000000000000000000602082015250565b600061296f602583611cb1565b915061297a82612913565b604082019050919050565b6000602082019050818103600083015261299e81612962565b9050919050565b7f455243313135353a20696e73756666696369656e742062616c616e636520666f60008201527f72207472616e7366657200000000000000000000000000000000000000000000602082015250565b6000612a01602a83611cb1565b9150612a0c826129a5565b604082019050919050565b60006020820190508181036000830152612a30816129f4565b9050919050565b6000612a4282611b4b565b9150612a4d83611b4b565b9250828201905080821115612a6557612a646126a0565b5b92915050565b60006040820190508181036000830152612a8581856121ec565b90508181036020830152612a9981846121ec565b90509392505050565b7f455243313135353a206d696e7420746f20746865207a65726f2061646472657360008201527f7300000000000000000000000000000000000000000000000000000000000000602082015250565b6000612afe602183611cb1565b9150612b0982612aa2565b604082019050919050565b60006020820190508181036000830152612b2d81612af1565b9050919050565b6000604082019050612b496000830185611bc1565b612b566020830184611bc1565b9392505050565b7f455243313135353a2073657474696e6720617070726f76616c2073746174757360008201527f20666f722073656c660000000000000000000000000000000000000000000000602082015250565b6000612bb9602983611cb1565b9150612bc482612b5d565b604082019050919050565b60006020820190508181036000830152612be881612bac565b9050919050565b612bf881611b0d565b82525050565b600081519050919050565b600082825260208201905092915050565b6000612c2582612bfe565b612c2f8185612c09565b9350612c3f818560208601611cc2565b612c4881611cec565b840191505092915050565b600060a082019050612c686000830188612bef565b612c756020830187612bef565b8181036040830152612c8781866121ec565b90508181036060830152612c9b81856121ec565b90508181036080830152612caf8184612c1a565b90509695505050505050565b600081519050612cca81611c17565b92915050565b600060208284031215612ce657612ce5611ae3565b5b6000612cf484828501612cbb565b91505092915050565b60008160e01c9050919050565b600060033d1115612d295760046000803e612d26600051612cfd565b90505b90565b600060443d10612db957612d3e611ad9565b60043d036004823e80513d602482011167ffffffffffffffff82111715612d66575050612db9565b808201805167ffffffffffffffff811115612d845750505050612db9565b80602083010160043d038501811115612da1575050505050612db9565b612db082602001850186611db9565b82955050505050505b90565b7f455243313135353a207472616e7366657220746f206e6f6e2d4552433131353560008201527f526563656976657220696d706c656d656e746572000000000000000000000000602082015250565b6000612e18603483611cb1565b9150612e2382612dbc565b604082019050919050565b60006020820190508181036000830152612e4781612e0b565b9050919050565b7f455243313135353a204552433131353552656365697665722072656a6563746560008201527f6420746f6b656e73000000000000000000000000000000000000000000000000602082015250565b6000612eaa602883611cb1565b9150612eb582612e4e565b604082019050919050565b60006020820190508181036000830152612ed981612e9d565b9050919050565b600060a082019050612ef56000830188612bef565b612f026020830187612bef565b612f0f6040830186611bc1565b612f1c6060830185611bc1565b8181036080830152612f2e8184612c1a565b9050969550505050505056fea2646970667358221220295d4658a4e5d3924900107678290dc70684e522f10ce9d51ba50ab3f6ff426c64736f6c6343000811003354686973204e465420696e686572697473204f61736973204e6574776f726b277320737069726974206f66207072697661637920616e64206869676820706572666f726d616e636520746f20736572766520616c7068616772616d206561726c7920757365727368747470733a2f2f697066732e696f2f697066732f62616679626569666c6f37736a636632366a3635666a6b7864716c656232347336726668366674717075626a706c747972326e68656d706c7064752f616c706861524f53454e46542e6a736f6e",
  "linkReferences": {},
  "deployedLinkReferences": {}
}